:0300000002007B80
:0C007B00787FE4F6D8FD75810B020003CD
:10000300E4F50AF50BE4F508F509AF09A8077480D0
:10001300088002C313D8FCF5B0AF0BA8077401081E
:100023008002C333D8FCF4F5807F2C7E0112005B81
:100033000509E50970020508C39408E5086480947E
:100043008040C7050BE50B7002050AC39408E50A57
:080053006480948040AF80A896
:10005B00E4FDFCC3ED9FEC9E5015E4FBFA0BBB00DB
:0F006B00010AEB647B4A70F50DBD00010C80E4C7
:01007A002263
:00000001FF
