:03000000020112E8
:0C011200787FE4F6D8FD75810E02000332
:0A011E00C0F9A4B0999282F8809015
:10000300E4F50AF509F508E4F50DF50EE50875F0D4
:100013000A84F50BE50875F00A8485F00CE50B906E
:10002300011E93F5A0C2B07F017E001200F2D2B090
:10003300E50C90011E93F5A0C2B17F017E00120072
:10004300F2D2B1E50975F00A84F50BE50975F00AFA
:100053008485F00CE50B90011E93F5A0C2B27F01DD
:100063007E001200F2D2B2E50C90011E93F5A0C2FD
:10007300B37F017E001200F2D2B3E50A75F00A8461
:10008300F50BE50A75F00A8485F00CE50B90011E6B
:1000930093F5A0C2B47F017E001200F2D2B4E50C46
:1000A30090011E93F5A0C2B57F017E001200F2D22B
:1000B300B5050EE50E7002050DC394A6E50D94007B
:1000C300500302000F050AE50A643C600302000ABC
:1000D300F50A0509E509643C600302000AF5090510
:0F00E30008E5086418600302000AF50802000A25
:1000F200E4FDFCC3ED9FEC9E5015E4FBFA0BBB0044
:0F010200010AEB647B4A70F50DBD00010C80E42F
:0101110022CB
:00000001FF
