:0300000002007E7D
:0C007E00787FE4F6D8FD75810C020003C9
:0A008A00C0F9A4B0999282F88090AA
:10000300E4F508E50875F00A84F509E50875F00AD2
:100013008485F00AE4F50BF50CE50990008A93F565
:10002300A0C2B07F017E0012005ED2B0E50A90004C
:100033008A93F5A0C2B17F017E0012005ED2B105A2
:100043000CE50C7002050BC394FAE50B940040C950
:0B0053000508E508C3946440AA80A5DE
:10005E00E4FDFCC3ED9FEC9E5015E4FBFA0BBB00D8
:0F006E00010AEB647B4A70F50DBD00010C80E4C4
:01007D002260
:00000001FF
