:0300000002012AD0
:0C012A00787FE4F6D8FD75810F0200BE5E
:1000DC00504C45415345204C494B4520414E442002
:0900EC00535542435249424500BC
:0F010C00C2A68FB0C2A7D2A77F027E0002007FDB
:0F011B00D2A68FB0C2A7D2A77F027E0002007FBC
:06005C008B0B8A0C890DDC
:10006200E4F50EAB0BAA0CA90D850E827583001266
:0C0072000003FF600712011B050E80E771
:01007E00225F
:100030007F3812010C7F057E0012007F7F3812018D
:100040000C7F017E0012007F7F3812010C7F381276
:0C005000010C7F0112010C7F0C02010C5E
:1000F5008B0FBF01047F8080027FC0EF2D14FF129C
:07010500010CAF0F02011B0A
:10009F008B088A09890ABF01047F8080027FC0EF25
:0F00AF002D14FF12010CAB08AA09A90A02005C6C
:1000BE001200307BFF7A0079DC7D017F0112009FF8
:0E00CE007FE87E0312007F7F1812010C80F283
:10007F00E4FDFCC3ED9FEC9E5015E4FBFA0BBB00B7
:0F008F00010AEB647B4A70F50DBD00010C80E4A3
:01009E00223F
:10000300BB010CE58229F582E5833AF583E02250B2
:1000130006E92582F8E622BBFE06E92582F8E222FC
:0D002300E58229F582E5833AF583E4932216
:00000001FF
