:030000000200EC0F
:0C00EC00787FE4F6D8FD758110020066F4
:0A00F800C0F9A4B0999282F880903C
:10006600E4F508E50875F00A849000F893F509E5CB
:100076000875F00A84E5F093F50A7B007A007909A1
:100086007D027C001200037FE87E031200CC050887
:09009600E508C3946440CC80C766
:1000CC00E4FDFCC3ED9FEC9E5015E4FBFA0BBB006A
:0F00DC00010AEB647B4A70F50DBD00010C80E456
:0100EB0022F2
:0A0003008B0B8A0C890D8C0E8D0FFB
:10000D00E4F510AF107E00C3EF950FEE950E504442
:10001D00AB0BE50D250FF9E50C350EFAC3E99FF98C
:10002D00EA9EFA90FFFF12009FFDE4FB7E007480B4
:10003D00A803088006CEA2E713CE13D8F8FFEDF57E
:10004D0082EF558224FF92A1C2A0D2A00BBB08DC87
:08005D00051080AFC2A2D2A27F
:010065002278
:10009F00BB010CE58229F582E5833AF583E0225016
:1000AF0006E92582F8E622BBFE06E92582F8E22260
:0D00BF00E58229F582E5833AF583E493227A
:00000001FF
