:030000000200F209
:0C00F200787FE4F6D8FD758110020066EE
:100066007F037808E4F608DFFC7B007A0079087DD8
:10007600037C001200037FF47E011200D27F037816
:100086000874FFF608DFFC7F037B007A0079087DA1
:0F009600037C001200037FF47E011200D280C1B0
:1000D200E4FDFCC3ED9FEC9E5015E4FBFA0BBB0064
:0F00E200010AEB647B4A70F50DBD00010C80E450
:0100F10022EC
:0A0003008B0B8A0C890D8C0E8D0FFB
:10000D00E4F510AF107E00C3EF950FEE950E504442
:10001D00AB0BE50D250FF9E50C350EFAC3E99FF98C
:10002D00EA9EFA90FFFF1200A5FDE4FB7E007480AE
:10003D00A803088006CEA2E713CE13D8F8FFEDF57E
:10004D0082EF558224FF92A1C2A0D2A00BBB08DC87
:08005D00051080AFC2A2D2A27F
:010065002278
:1000A500BB010CE58229F582E5833AF583E0225010
:1000B50006E92582F8E622BBFE06E92582F8E2225A
:0D00C500E58229F582E5833AF583E4932274
:00000001FF
