:0300000002007982
:0C007900787FE4F6D8FD758107020003D3
:10005900E4FDFCC3ED9FEC9E5015E4FBFA0BBB00DD
:0F006900010AEB647B4A70F50DBD00010C80E4C9
:010078002265
:10000300D2807FF47E01120059D281120059D2822C
:10001300120059D283120059D284120059D2851288
:100023000059D286120059D287120059C280120099
:1000330059C281120059C282120059C28312005957
:10004300C284120059C285120059C286120059C2D5
:060053008712005980AA8B
:00000001FF
